S3150000000020010020FF0100000B0200000D0200008D
S3150000001000000000000000000000000000000000DA
S315000000200000000000000000000000000F020000B9
S315000000300000000000000000110200001302000092
S31500000040150200001502000015020000150200004E
S31500000050150200001502000015020000150200003E
S31500000060150200001502000015020000150200002E
S31500000070AB01000015020000150200001502000089
S31500000080150200001502000015020000150200000E
S3150000009015020000150200001502000015020000FE
S315000000A015020000150200001502000015020000EE
S315000000B0150200001502000015020000850100006F
S315000000C00348854601F040F800480047FD0000005F
S315000000D02001002010B54048017803221143017029
S315000000E03E4841689206114341603E483C494B22D6
S315000000F0016012023C4800F0F9F810BD3748816BE8
S315000001000322520211438163C26B81030A43C26315
S31500000110364A1368DBB21360C26B8A43C263344843
S31500000120416907252D02A943FF310131416131495A
S315000001304A69520852004A6144690F221204052393
S3150000014094435B04E41844610468AC43FF3401340F
S3150000015004604C69640864004C6101689143C918E5
S3150000016001601F2000F00BFC0C2000F008FC224C64
S31500000170002560780128FCD16570FFF7ABFF00F021
S31500000180C8FEF6E71A488030016A890603D5016A77
S31500000190202211430162016AC90705D0026A0121C2
S315000001A00A43026214484170704710B50E48416810
S315000001B0090304D541680122D20411434160416814
S315000001C0890207D5C0680C4CC0B2207000F02FF829
S315000001D00020607010BD0000004006400080044012
S315000001E000127A00140000200040054000D00340B1
S315000001F000A0044040F00F40000000207047064871
S3150000020080470648804706480047FEE7FEE7FEE7C8
S31500000210FEE7FEE7FEE7000065050000FD010000C1
S31500000220C100000010B5074800F082F810BD10B5F7
S315000002300146044800F082F810BD10B5014800F0F0
S3150000024082F810BD00400540F8B5214DA86B03218A
S3150000025049020843A8631F488178090703D58178B6
S3150000026008221143817000F09FF81B4C0028206083
S3150000027001D11A4820607D21C900064600F020FF02
S31500000280134F606040377968090F491C00F002FF80
S31500000290A06079684903490F491C00F0FBFEE06045
S315000002A00F488642686801D1390501E003218906B5
S315000002B00843686001200B4A4002266131465060BF
S315000002C090604B221202084800F010F8F8BD0000BA
S315000002D00080044000D007400400002000127A008D
S315000002E0006CDC0200A004400040054070B50446E6
S315000002F017480B46816B01252D0529438163002094
S31500000300A06020681146C000C00E401C414318463C
S3150000031000F0D6FE2168490B490321602168C0041C
S31500000320C00C01432160A0680A490843A06070BD63
S3150000033041688902FCD5C068C0B2704742681202A3
S31500000340FCD5C160704740680121490508407047E7
S315000003500080044000002C0810B504460A2802D18B
S315000003600D2000F011F8204600F00EF810BD10B573
S3150000037000F012F810BD0020C043704710B500F021
S3150000038003F810BDFEE7000010B50446C1B20548EB
S31500000390FFF7D4FFE0B210BD10B50248FFF7C8FF63
S315000003A010BD0000004005400A48017E802211432E
S315000003B0017600210170084A00E0491C83791B0779
S315000003C09B0F01D09142F8D3914201D20348704766
S315000003D00020704700400640204E0000006CDC0202
S315000003E010B5202A04DB0146203A9140002010BDBA
S315000003F0914020239C1A0346E3401943904010BDC8
S31500000400FFFFFFFFFFFFFFFFFFFFFFFFFE3DFFFFB9
S3150000041010B5614C606A4000400F030000F0C8FE52
S315000004200504061416181A005CA000E05DA000F092
S31500000430AFFE606A4001400F801E030000F0B8FE68
S31500000440050C0E212325270058A0F0E759A0EEE75A
S315000004505AA0ECE75BA0EAE764A000E064A000F025
S3150000046097FE64A000F094FE606A0007000F030088
S3150000047000F09EFE0B0F111F2F21232527292B2D60
S315000004802F005DA0EBE75DA0E9E75DA0E7E75DA0D3
S31500000490E5E767A000E06AA000F07AFE606A400324
S315000004A0400F030000F084FE0817192F313335374B
S315000004B0393B67A0F0E76AA0EEE76DA0ECE770A015
S315000004C0EAE773A0E8E776A0E6E779A0E4E77CA090
S315000004D0E2E77FA0E0E789A000E08DA000F058FEEB
S315000004E00F2190A000F054FE2B484030C068000158
S315000004F0000F052823D014DC00281AD001281AD0B2
S31500000500032814D119E08BA0E8E78FA0E6E793A0B3
S31500000510E4E797A0E2E79BA0E0E79FA0DEE7A3A0C1
S31500000520DCE707280DD009280DD00F2805D0A6A096
S315000005300AE0ACA008E0BAA006E0C8A004E0D6A095
S3150000054002E0E4A000E0F2A000F022FE10BD10B52B
S31500000550FE4900200860FFF777FE00F0D7FAFFF7A4
S3150000056057FF10BDF3E730B5F9480324C4710021E5
S315000005708171417101710122C27380230370057874
S315000005802D06FCD5C4718171417104210171C273BC
S31500000590037001780906DDE1008004400A4B4C3007
S315000005A0000000000A4B4C31000000000A4B4C32A0
S315000005B0000000000A4B4C33000000000A4B4C348C
S315000005C0000000000A556E7265636F676E697A6592
S315000005D064204B696E657469732066616D696C7918
S315000005E0206465766963652E0A000000320000000B
S315000005F03300000020200000340000003500000019
S31500000600360000000A556E7265636F676E697A651B
S3150000061064204B696E65746973207375622D66611B
S315000006206D696C79206465766963652E0A00000041
S31500000630313670696E202020202020200000000026
S31500000640323470696E202020202020200000000017
S31500000650333270696E202020202020200000000008
S31500000660343870696E2020202020202000000000F1
S31500000670363470696E2020202020202000000000E3
S31500000680383070696E2020202020202000000000D5
S31500000690383170696E2020202020202000000000C4
S315000006A031303070696E20202020202000000000AC
S315000006B031323170696E2020202020200000000099
S315000006C031343470696E2020202020200000000084
S315000006D00A556E7265636F676E697A6564204B6949
S315000006E06E65746973207061636B61676520636F03
S315000006F064652E2020202020200000005352414D0A
S315000007002053697A653A20302E35204B420A000084
S315000007105352414D2053697A653A202031204B428D
S315000007200A00000053696C69636F6E20726576205B
S3150000073025640A005352414D2053697A653A2020B8
S3150000074032204B420A0000005352414D2053697A31
S31500000750653A202034204B420A0000005352414D96
S315000007602053697A653A202038204B420A0000005F
S315000007705352414D2053697A653A20203136204B39
S31500000780420A00005352414D2053697A653A2020AF
S315000007903332204B420A00005352414D2053697AAE
S315000007A0653A20203634204B420A00000A556E7204
S315000007B065636F676E697A6564205352414D2053B5
S315000007C0697A652E0A000000455252212120556E95
S315000007D0646566696E656420666C6173682073691A
S315000007E07A650A00466C6173682073697A653A20F7
S315000007F02038204B422070726F6772616D20666CE4
S315000008006173682C20302E3235204B422070726F77
S3150000081074656374696F6E20726567696F6E0A002E
S31500000820466C6173682073697A653A2020313620F8
S315000008304B422070726F6772616D20666C617368DF
S315000008402C20302E35204B422070726F74656374F5
S31500000850696F6E20726567696F6E0A00466C617318
S31500000860682073697A653A20203332204B42207023
S31500000870726F6772616D20666C6173682C2031201F
S315000008804B422070726F74656374696F6E20726577
S3150000089067696F6E0A000000466C617368207369B1
S315000008A07A653A20203634204B422070726F677288
S315000008B0616D20666C6173682C2032204B4220707B
S315000008C0726F74656374696F6E20726567696F6EA7
S315000008D00A000000466C6173682073697A653A20E5
S315000008E020313238204B422070726F6772616D2062
S315000008F0666C6173682C2034204B422070726F74D2
S31500000900656374696F6E20726567696F6E0A0000B1
S31500000910466C6173682073697A653A2020323536F1
S31500000920204B422070726F6772616D20666C617336
S31500000930682C2038204B422070726F74656374698E
S315000009406F6E20726567696F6E0A00000081044051
S315000009500000024000D41CE630BD00002B480169AF
S3150000096004221143016130BF7047284801690422FF
S315000009709143016130BF704724498860704710B5C4
S31500000980202803DD22A000F003FC10BD2E490A68D2
S31500000990C317DB0E1B185B095B01C31A01209840C5
S315000009A002430A6029490A6802430A6010BD10B56D
S315000009B0202803DD26A000F0EBFB10BDC117C90EF1
S315000009C0091849094901411A012088401F49803107
S315000009D0086010BD10B50C46202805DD2BA000F0E0
S315000009E0D7FB032C02DC10BD032C03DD36A000F080
S315000009F0CFFB10BDC117890F08188005000E4249AC
S31500000A0080004018A101017010BD000000ED00E05B
S31500000A100A4552522120496E76616C69642049521A
S31500000A20512076616C7565207061737365642074FE
S31500000A306F20656E61626C65206972712066756EE5
S31500000A406374696F6E210A0080E200E000E100E055
S31500000A500A4552522120496E76616C6964204952DA
S31500000A60512076616C7565207061737365642074BE
S31500000A706F2064697361626C6520697271206675A6
S31500000A806E6374696F6E210A000000000A455252B7
S31500000A902120496E76616C69642049525120766145
S31500000AA06C75652070617373656420746F20707255
S31500000AB0696F72697479206972712066756E6374E4
S31500000AC0696F6E210A0000000A4552522120496EC4
S31500000AD076616C6964207072696F726974792076C8
S31500000AE0616C75652070617373656420746F207026
S31500000AF072696F72697479206972712066756E63A6
S31500000B0074696F6E210A000000E400E070B5434C82
S31500000B106078800602D542A000F03AFB60780007B4
S31500000B2002D548A000F034FB6078400702D549A002
S31500000B3000F02EFB6078800702D54AA000F028FB63
S31500000B402078000602D54EA000F022FB2078400651
S31500000B5002D54FA000F01CFB2078800602D551A0DC
S31500000B6000F016FB2078800702D554A000F010FB99
S31500000B702078C00742D058A000F00AFB634D2978C0
S31500000B8063A000F005FB697869A000F001FBA97875
S31500000B906FA000F0FDFAE97876A000F0F9FA68781F
S31500000BA04007400F032802D17AA000F0F1FA6878D6
S31500000BB04007400F042807D1A8784007400F0128B6
S31500000BC002D179A000F0E4FA68784007400F0428C3
S31500000BD007D1A8784007400F022802D178A000F07C
S31500000BE0D7FA68784007400F042807D1A87840074D
S31500000BF0400F032802D178A000F0CAFA2078002816
S31500000C000AD16078002807D1217879A000F0C0FACF
S31500000C10617881A000F0BCFA70BD000000F00740CA
S31500000C2053746F70204D6F64652041636B6E6F77F0
S31500000C306C65646765204572726F722052657365D4
S31500000C40740A00004D444D2D415020526573657461
S31500000C500A000000536F66747761726520526573EF
S31500000C6065740A00436F7265204C6F636B75702064
S31500000C704576656E742052657365740A000000003F
S31500000C80506F7765722D6F6E2052657365740A001A
S31500000C9045787465726E616C2050696E205265737A
S31500000CA065740A005761746368646F6728434F5020
S31500000CB0292052657365740A000000004C6F772D79
S31500000CC0766F6C7461676520446574656374205241
S31500000CD0657365740A0000005B6F75745352535D4B
S31500000CE057616B6575702062697420736574206640
S31500000CF0726F6D206C6F7720706F776572206D6FE5
S31500000D00646520657869740A0000000000E0074009
S31500000D105B6F75745352535D534D435F504D505244
S31500000D204F542020203D202523303258200D0A0024
S31500000D305B6F75745352535D534D435F504D43542F
S31500000D40524C2020203D202523303258200D0A0009
S31500000D505B6F75745352535D534D435F53544F50FD
S31500000D604354524C2020203D202523303258200D5C
S31500000D700A0000005B6F75745352535D534D435F19
S31500000D80504D535441542020203D202523303258C5
S31500000D90200D0A005B6F75745352535D204C4C5303
S31500000DA02065786974200A005B6F75745352535D31
S31500000DB020564C4C53312065786974200A00000097
S31500000DC05B6F75745352535D20564C4C53322065FD
S31500000DD0786974200A0000005B6F75745352535D86
S31500000DE020564C4C53332065786974200A00000065
S31500000DF05B6F75745352535D52434D5F535253307C
S31500000E00206973205A45524F2020203D202523304B
S31500000E103258200D0A0000005B6F75745352535D03
S31500000E2052434D5F53525331206973205A45524FF6
S31500000E302020203D202523303258200D0A000000B6
S31500000E409048016904229143016130BF70478D4883
S31500000E50016904221143016130BF70478948016965
S31500000E6004229143016130BF7047874900220A700E
S31500000E704A78D208D2004A704A784A708A7892062E
S31500000E80920E8A708A7802438A7048787D48016992
S31500000E9004221143016130BF704730B57A49CA78E0
S31500000EA05206520E042A00D1142020220A704A78D3
S31500000EB09F231A404A704A7840231A434A70734B5C
S31500000EC0734C00229D786D0702D5521CA242F9DBB5
S31500000ED09A78520700D52420CA785206520E042A60
S31500000EE000D1C87830BD6848C1784906490E042942
S31500000EF00ED141789F2211404170644A0021C37887
S31500000F005B065B0E012B00D19378491CFF29F6DBAB
S31500000F10704708B55C48202101704178C908C900AE
S31500000F20417041780222114341704078401C009084
S31500000F305448016904221143016130BF08BD08B558
S31500000F405148022101704178C908C90041704278B0
S31500000F5004210A434270032282708078401C00906C
S31500000F60484802690A43026130BF08BD08B54648D1
S31500000F70022202704178C908C900417043780421F1
S31500000F800B43437082708078401C00903D48026994
S31500000F900A43026130BF08BD08B53B480221017013
S31500000FA04178C908C9004170427804210A43427059
S31500000FB0012282708078401C0090324802690A4300
S31500000FC0026130BF08BD10B52F4902220A70CA78E7
S31500000FD05206520E042A0CD14A789F231A404A70B0
S31500000FE00022CB785B065B0E012B02D0521CFF2A37
S31500000FF0F7DB4A78D208D2004A704B7804221343B2
S315000010004B708B78DB08DB008B708B78DF242340FA
S315000010108B708B78400103438B708878194801697F
S315000010201143016130BF10BD08B517480221017098
S31500001030C1784906490E04290CD141789F221140F6
S3150000104041700021C2785206520E012A02D0491C74
S31500001050FF29F7DB4178C908C900417042780421AD
S315000010600A4342708278D208D200827020228270AF
S315000010708078401C0090034802690A43026130BF31
S3150000108008BD000000ED00E000E0074000D007408A
S315000010901027000030B50B4601460020202201240F
S315000010A009E00D46D5409D4205D31D469540491B96
S315000010B02546954040191546521E002DF1DC30BDDF
S315000010C070B500242546002801DA01244042002993
S315000010D001DA01254942FFF7DDFFAC4200D040426C
S315000010E0002C00D0494270BDF0B51FB40646002062
S315000010F082B005464024019100901BE001992246EA
S315000011000F46304600F032F8049A059B801A994142
S3150000111010D3104619462246FFF762F9361A8F4158
S315000011200197224601200021009FFFF759F9381840
S315000011304D4100902046641E0028DFDC019B00988C
S315000011402946324607B0F0BD064C0125064E05E09D
S31500001150E36807CC2B430C3C98471034B442F7D3D2
S31500001160FEF7B2FF5C1600007C16000010B5202AC0
S3150000117004DB0846203AD040002110BD0B46D34080
S31500001180D0402024A21A91400843194610BD000001
S315000011900FB410B503A9044B044A029800F024F8D2
S315000011A010BC08BC04B01847590300001800002002
S315000011B030B47446641E2578641CAB4200D21D46CA
S315000011C0635D5B00E31830BC184702E008C8121FD5
S315000011D008C1002AFAD170477047002001E001C11A
S315000011E0121F002AFBD17047FFB591B00F46054686
S315000011F0002606E025280AD0149A139990476D1CFC
S31500001200761C28780028F5D1304615B0F0BD0024AC
S3150000121000940121F34A029400E004436D1C2B78EC
S315000012200846203B98401042F7D128782A280ED04D
S31500001230022128780246303A092A15D8009A0A234C
S315000012405A43303A80180C436D1C0090F1E701CFE9
S315000012500090002805DA012040030443009840422C
S315000012600090022004436D1C28782E2815D10420F6
S31500001270044368786D1C2A280AD101CF6D1C0290A0
S315000012800BE002990A225143303940186D1C029036
S315000012902878014630390929F3D928786C2810D0E6
S315000012A006DC4C281AD068280ED06A2817D104E02C
S315000012B0742813D07A2812D110E001204005044387
S315000012C00CE00121090501E0032109050C436978B9
S315000012D0814203D10120000524186D1C6D1C28785D
S315000012E003906E281ED00CDC632831D004DC002865
S315000012F08AD0582811D1B2E064287BD069280CD155
S3150000130078E073282DD004DC6F2870D0702804D1C3
S31500001310A7E075286CD078286BD0149A139990475B
S31500001320761C62E06002400F022807D003280AD02C
S31500001330042838680AD006603F1D56E03868F11761
S3150000134006604160F8E738680680F5E70670F3E75F
S315000013503878694608740020487404A80390012070
S3150000136003E0386803900020C0433F1D61070FD596
S31500001370002101E00199491C029A0191914213DA78
S315000013808142F7DB019A0399895C0029F2D10BE0CF
S31500001390002101E00199491C01918142FADB019A81
S315000013A00399895C0029F5D101990098139A401A8E
S315000013B000902146149B00F03BF9019980194618CC
S315000013C007E0039803990078491C0391149A13992E
S315000013D090470198401E0190401CF2D12146149B73
S315000013E0139A009800F014F986196D1C09E741E07C
S315000013F033E034E00A200021049005916002410F99
S31500001400022905D001CFC2179446032905D007E06B
S31500001410FF1DFF08FF0003CF06E000B2C217944687
S31500001420042902D140B2C1178C4600226146944578
S3150000143006DA0A460021404291418C462D2102E0FF
S31500001440210504D52B216A461176012103E0E10727
S3150000145001D02021F7E7019154E00A200BE010208B
S3150000146009E010200490002104200443082005917F
S31500001470029003E008200021059104906002410FCC
S31500001480022905D001CF00229446032906D006E0A2
S31500001490FF1DFF08FF0003CF8C4603E080B204293E
S315000014A000D1C0B20021019121072BD503997029E3
S315000014B006D0049A1021059B4A401A4305D00EE037
S315000014C040216A461176012108E06146014306D0B3
S315000014D030216A4611760399517602210191049AC8
S315000014E00821059B4A401A430CD16146014301D1AC
S315000014F0610707D530216A461176012101910299CB
S31500001500491E02910399582904D037A103910FA9C6
S315000015100F910DE039A1F9E76146059B049AFFF7A3
S31500001520E3FD039B8C469B5C0F9A521E0F92137031
S3150000153061460143F0D10F9807A9081A203003909D
S31500001540600704D5012000048443029801E00120CD
S3150000155002900399884201DD401A00E000204118FC
S315000015600290019809180098401A0090E00306D4EA
S315000015702146149B139A009800F05AF88619002009
S31500001580049008E006A9085C149A139990470498F9
S31500001590401C761C049001998842F3DBE0030CD5CD
S315000015A02146149B139A009800F042F8861904E02D
S315000015B0149A302013999047761C0299481E02907F
S315000015C00029F5DC08E00F980F990078491C0F9167
S315000015D0149A13999047761C0399481E0390002984
S315000015E0F1DCFBE609280100303132333435363779
S315000015F03839616263646566000000003031323359
S3150000160034353637383941424344454600000000F8
S31500001610F8B5044600251E461746880404D405E09E
S3150000162039462020B0476D1C641EF9D52846F8BD02
S31500001630FFB50446002581B01E46C80301D53027F4
S3150000164000E02027880404D505E038460399B04712
S315000016506D1C641EF9D5284605B0F0BD7C16000049
S31500001660000000201C000000CA11000098160000AF
S315000016701C00002004010000DA1100000000000038
S315000016800000000000000000000000000000000054
S30D0000169000000000000000004C
S705000000C139
